{
	"KipuBank.sol": {
		"KipuBank": {
			"abi": [
				{
					"inputs": [
						{
							"internalType": "uint256",
							"name": "_bankCap",
							"type": "uint256"
						}
					],
					"stateMutability": "nonpayable",
					"type": "constructor"
				},
				{
					"inputs": [],
					"name": "ExceedsBankCapacity",
					"type": "error"
				},
				{
					"inputs": [],
					"name": "ExceedsWithdrawalLimit",
					"type": "error"
				},
				{
					"inputs": [],
					"name": "InsufficientBalance",
					"type": "error"
				},
				{
					"inputs": [],
					"name": "TransferFailed",
					"type": "error"
				},
				{
					"anonymous": false,
					"inputs": [
						{
							"indexed": true,
							"internalType": "address",
							"name": "user",
							"type": "address"
						},
						{
							"indexed": false,
							"internalType": "uint256",
							"name": "amount",
							"type": "uint256"
						}
					],
					"name": "Deposit",
					"type": "event"
				},
				{
					"anonymous": false,
					"inputs": [
						{
							"indexed": true,
							"internalType": "address",
							"name": "user",
							"type": "address"
						},
						{
							"indexed": false,
							"internalType": "uint256",
							"name": "amount",
							"type": "uint256"
						}
					],
					"name": "Withdrawal",
					"type": "event"
				},
				{
					"stateMutability": "payable",
					"type": "fallback"
				},
				{
					"inputs": [],
					"name": "WITHDRAWAL_LIMIT",
					"outputs": [
						{
							"internalType": "uint256",
							"name": "",
							"type": "uint256"
						}
					],
					"stateMutability": "view",
					"type": "function"
				},
				{
					"inputs": [],
					"name": "bankCap",
					"outputs": [
						{
							"internalType": "uint256",
							"name": "",
							"type": "uint256"
						}
					],
					"stateMutability": "view",
					"type": "function"
				},
				{
					"inputs": [],
					"name": "deposit",
					"outputs": [],
					"stateMutability": "payable",
					"type": "function"
				},
				{
					"inputs": [
						{
							"internalType": "address",
							"name": "_user",
							"type": "address"
						}
					],
					"name": "getBalance",
					"outputs": [
						{
							"internalType": "uint256",
							"name": "",
							"type": "uint256"
						}
					],
					"stateMutability": "view",
					"type": "function"
				},
				{
					"inputs": [],
					"name": "getTotalBalance",
					"outputs": [
						{
							"internalType": "uint256",
							"name": "",
							"type": "uint256"
						}
					],
					"stateMutability": "view",
					"type": "function"
				},
				{
					"inputs": [
						{
							"internalType": "uint256",
							"name": "_amount",
							"type": "uint256"
						}
					],
					"name": "withdraw",
					"outputs": [],
					"stateMutability": "nonpayable",
					"type": "function"
				},
				{
					"stateMutability": "payable",
					"type": "receive"
				}
			],
			"devdoc": {
				"details": "Contrato para um banco simples com limite de capacidade",
				"kind": "dev",
				"methods": {
					"constructor": {
						"details": "Constructor que define o limite máximo do banco",
						"params": {
							"_bankCap": "Limite máximo de ETH que o banco pode armazenar"
						}
					},
					"deposit()": {
						"details": "Função para realizar depósito de ETH"
					},
					"getBalance(address)": {
						"details": "Função para consultar saldo do usuário",
						"params": {
							"_user": "Endereço do usuário"
						},
						"returns": {
							"_0": "Saldo do usuário"
						}
					},
					"getTotalBalance()": {
						"details": "Função para consultar saldo total do contrato",
						"returns": {
							"_0": "Saldo total do contrato"
						}
					},
					"withdraw(uint256)": {
						"details": "Função para realizar saque de ETH",
						"params": {
							"_amount": "Valor a ser sacado"
						}
					}
				},
				"title": "KipuBank",
				"version": 1
			},
			"evm": {
				"assembly": "    /* \"KipuBank.sol\":149:3499  contract KipuBank {... */\n  mstore(0x40, 0xa0)\n    /* \"KipuBank.sol\":828:964  constructor(uint256 _bankCap) {... */\n  callvalue\n  dup1\n  iszero\n  tag_1\n  jumpi\n  0x00\n  dup1\n  revert\ntag_1:\n  pop\n  mload(0x40)\n  sub(codesize, bytecodeSize)\n  dup1\n  bytecodeSize\n  dup4\n  codecopy\n  dup2\n  dup2\n  add\n  0x40\n  mstore\n  dup2\n  add\n  swap1\n  tag_2\n  swap2\n  swap1\n  tag_3\n  jump\t// in\ntag_2:\n    /* \"KipuBank.sol\":887:888  0 */\n  0x00\n    /* \"KipuBank.sol\":876:884  _bankCap */\n  dup2\n    /* \"KipuBank.sol\":876:888  _bankCap > 0 */\n  gt\n    /* \"KipuBank.sol\":868:929  require(_bankCap > 0, \"Bank capacity must be greater than 0\") */\n  tag_6\n  jumpi\n  mload(0x40)\n  0x08c379a000000000000000000000000000000000000000000000000000000000\n  dup2\n  mstore\n  0x04\n  add\n  tag_7\n  swap1\n  tag_8\n  jump\t// in\ntag_7:\n  mload(0x40)\n  dup1\n  swap2\n  sub\n  swap1\n  revert\ntag_6:\n    /* \"KipuBank.sol\":949:957  _bankCap */\n  dup1\n    /* \"KipuBank.sol\":939:957  bankCap = _bankCap */\n  0x80\n  dup2\n  dup2\n  mstore\n  pop\n  pop\n    /* \"KipuBank.sol\":828:964  constructor(uint256 _bankCap) {... */\n  pop\n    /* \"KipuBank.sol\":149:3499  contract KipuBank {... */\n  jump(tag_9)\n    /* \"#utility.yul\":88:205   */\ntag_11:\n    /* \"#utility.yul\":197:198   */\n  0x00\n    /* \"#utility.yul\":194:195   */\n  dup1\n    /* \"#utility.yul\":187:199   */\n  revert\n    /* \"#utility.yul\":334:411   */\ntag_13:\n    /* \"#utility.yul\":371:378   */\n  0x00\n    /* \"#utility.yul\":400:405   */\n  dup2\n    /* \"#utility.yul\":389:405   */\n  swap1\n  pop\n    /* \"#utility.yul\":334:411   */\n  swap2\n  swap1\n  pop\n  jump\t// out\n    /* \"#utility.yul\":417:539   */\ntag_14:\n    /* \"#utility.yul\":490:514   */\n  tag_25\n    /* \"#utility.yul\":508:513   */\n  dup2\n    /* \"#utility.yul\":490:514   */\n  tag_13\n  jump\t// in\ntag_25:\n    /* \"#utility.yul\":483:488   */\n  dup2\n    /* \"#utility.yul\":480:515   */\n  eq\n    /* \"#utility.yul\":470:533   */\n  tag_26\n  jumpi\n    /* \"#utility.yul\":529:530   */\n  0x00\n    /* \"#utility.yul\":526:527   */\n  dup1\n    /* \"#utility.yul\":519:531   */\n  revert\n    /* \"#utility.yul\":470:533   */\ntag_26:\n    /* \"#utility.yul\":417:539   */\n  pop\n  jump\t// out\n    /* \"#utility.yul\":545:688   */\ntag_15:\n    /* \"#utility.yul\":602:607   */\n  0x00\n    /* \"#utility.yul\":633:639   */\n  dup2\n    /* \"#utility.yul\":627:640   */\n  mload\n    /* \"#utility.yul\":618:640   */\n  swap1\n  pop\n    /* \"#utility.yul\":649:682   */\n  tag_28\n    /* \"#utility.yul\":676:681   */\n  dup2\n    /* \"#utility.yul\":649:682   */\n  tag_14\n  jump\t// in\ntag_28:\n    /* \"#utility.yul\":545:688   */\n  swap3\n  swap2\n  pop\n  pop\n  jump\t// out\n    /* \"#utility.yul\":694:1045   */\ntag_3:\n    /* \"#utility.yul\":764:770   */\n  0x00\n    /* \"#utility.yul\":813:815   */\n  0x20\n    /* \"#utility.yul\":801:810   */\n  dup3\n    /* \"#utility.yul\":792:799   */\n  dup5\n    /* \"#utility.yul\":788:811   */\n  sub\n    /* \"#utility.yul\":784:816   */\n  slt\n    /* \"#utility.yul\":781:900   */\n  iszero\n  tag_30\n  jumpi\n    /* \"#utility.yul\":819:898   */\n  tag_31\n  tag_11\n  jump\t// in\ntag_31:\n    /* \"#utility.yul\":781:900   */\ntag_30:\n    /* \"#utility.yul\":939:940   */\n  0x00\n    /* \"#utility.yul\":964:1028   */\n  tag_32\n    /* \"#utility.yul\":1020:1027   */\n  dup5\n    /* \"#utility.yul\":1011:1017   */\n  dup3\n    /* \"#utility.yul\":1000:1009   */\n  dup6\n    /* \"#utility.yul\":996:1018   */\n  add\n    /* \"#utility.yul\":964:1028   */\n  tag_15\n  jump\t// in\ntag_32:\n    /* \"#utility.yul\":954:1028   */\n  swap2\n  pop\n    /* \"#utility.yul\":910:1038   */\n  pop\n    /* \"#utility.yul\":694:1045   */\n  swap3\n  swap2\n  pop\n  pop\n  jump\t// out\n    /* \"#utility.yul\":1051:1220   */\ntag_16:\n    /* \"#utility.yul\":1135:1146   */\n  0x00\n    /* \"#utility.yul\":1169:1175   */\n  dup3\n    /* \"#utility.yul\":1164:1167   */\n  dup3\n    /* \"#utility.yul\":1157:1176   */\n  mstore\n    /* \"#utility.yul\":1209:1213   */\n  0x20\n    /* \"#utility.yul\":1204:1207   */\n  dup3\n    /* \"#utility.yul\":1200:1214   */\n  add\n    /* \"#utility.yul\":1185:1214   */\n  swap1\n  pop\n    /* \"#utility.yul\":1051:1220   */\n  swap3\n  swap2\n  pop\n  pop\n  jump\t// out\n    /* \"#utility.yul\":1226:1449   */\ntag_17:\n    /* \"#utility.yul\":1366:1400   */\n  0x42616e6b206361706163697479206d7573742062652067726561746572207468\n    /* \"#utility.yul\":1362:1363   */\n  0x00\n    /* \"#utility.yul\":1354:1360   */\n  dup3\n    /* \"#utility.yul\":1350:1364   */\n  add\n    /* \"#utility.yul\":1343:1401   */\n  mstore\n    /* \"#utility.yul\":1435:1441   */\n  0x616e203000000000000000000000000000000000000000000000000000000000\n    /* \"#utility.yul\":1430:1432   */\n  0x20\n    /* \"#utility.yul\":1422:1428   */\n  dup3\n    /* \"#utility.yul\":1418:1433   */\n  add\n    /* \"#utility.yul\":1411:1442   */\n  mstore\n    /* \"#utility.yul\":1226:1449   */\n  pop\n  jump\t// out\n    /* \"#utility.yul\":1455:1821   */\ntag_18:\n    /* \"#utility.yul\":1597:1600   */\n  0x00\n    /* \"#utility.yul\":1618:1685   */\n  tag_36\n    /* \"#utility.yul\":1682:1684   */\n  0x24\n    /* \"#utility.yul\":1677:1680   */\n  dup4\n    /* \"#utility.yul\":1618:1685   */\n  tag_16\n  jump\t// in\ntag_36:\n    /* \"#utility.yul\":1611:1685   */\n  swap2\n  pop\n    /* \"#utility.yul\":1694:1787   */\n  tag_37\n    /* \"#utility.yul\":1783:1786   */\n  dup3\n    /* \"#utility.yul\":1694:1787   */\n  tag_17\n  jump\t// in\ntag_37:\n    /* \"#utility.yul\":1812:1814   */\n  0x40\n    /* \"#utility.yul\":1807:1810   */\n  dup3\n    /* \"#utility.yul\":1803:1815   */\n  add\n    /* \"#utility.yul\":1796:1815   */\n  swap1\n  pop\n    /* \"#utility.yul\":1455:1821   */\n  swap2\n  swap1\n  pop\n  jump\t// out\n    /* \"#utility.yul\":1827:2246   */\ntag_8:\n    /* \"#utility.yul\":1993:1997   */\n  0x00\n    /* \"#utility.yul\":2031:2033   */\n  0x20\n    /* \"#utility.yul\":2020:2029   */\n  dup3\n    /* \"#utility.yul\":2016:2034   */\n  add\n    /* \"#utility.yul\":2008:2034   */\n  swap1\n  pop\n    /* \"#utility.yul\":2080:2089   */\n  dup2\n    /* \"#utility.yul\":2074:2078   */\n  dup2\n    /* \"#utility.yul\":2070:2090   */\n  sub\n    /* \"#utility.yul\":2066:2067   */\n  0x00\n    /* \"#utility.yul\":2055:2064   */\n  dup4\n    /* \"#utility.yul\":2051:2068   */\n  add\n    /* \"#utility.yul\":2044:2091   */\n  mstore\n    /* \"#utility.yul\":2108:2239   */\n  tag_39\n    /* \"#utility.yul\":2234:2238   */\n  dup2\n    /* \"#utility.yul\":2108:2239   */\n  tag_18\n  jump\t// in\ntag_39:\n    /* \"#utility.yul\":2100:2239   */\n  swap1\n  pop\n    /* \"#utility.yul\":1827:2246   */\n  swap2\n  swap1\n  pop\n  jump\t// out\n    /* \"KipuBank.sol\":149:3499  contract KipuBank {... */\ntag_9:\n  mload(0x80)\n  codecopy(0x00, dataOffset(sub_0), dataSize(sub_0))\n  0x00\n  assignImmutable(\"0x939eb54753ed0cc7e2272bfb34cbe098308c93936ed54d79078f76ade0b2e789\")\n  return(0x00, dataSize(sub_0))\nstop\n\nsub_0: assembly {\n        /* \"KipuBank.sol\":149:3499  contract KipuBank {... */\n      mstore(0x40, 0x80)\n      jumpi(tag_1, lt(calldatasize, 0x04))\n      shr(0xe0, calldataload(0x00))\n      dup1\n      0x12b58349\n      eq\n      tag_3\n      jumpi\n      dup1\n      0x2e1a7d4d\n      eq\n      tag_4\n      jumpi\n      dup1\n      0x82ee0d1d\n      eq\n      tag_5\n      jumpi\n      dup1\n      0xd0e30db0\n      eq\n      tag_6\n      jumpi\n      dup1\n      0xecbea24d\n      eq\n      tag_7\n      jumpi\n      dup1\n      0xf8b2cb4f\n      eq\n      tag_8\n      jumpi\n      jump(tag_2)\n    tag_1:\n      jumpi(tag_2, calldatasize)\n        /* \"KipuBank.sol\":3322:3364  revert(\"Use deposit function to send ETH\") */\n      mload(0x40)\n      0x08c379a000000000000000000000000000000000000000000000000000000000\n      dup2\n      mstore\n      0x04\n      add\n      tag_11\n      swap1\n      tag_12\n      jump\t// in\n    tag_11:\n      mload(0x40)\n      dup1\n      swap2\n      sub\n      swap1\n      revert\n        /* \"KipuBank.sol\":149:3499  contract KipuBank {... */\n    tag_2:\n        /* \"KipuBank.sol\":3461:3490  revert(\"Invalid transaction\") */\n      mload(0x40)\n      0x08c379a000000000000000000000000000000000000000000000000000000000\n      dup2\n      mstore\n      0x04\n      add\n      tag_15\n      swap1\n      tag_16\n      jump\t// in\n    tag_15:\n      mload(0x40)\n      dup1\n      swap2\n      sub\n      swap1\n      revert\n        /* \"KipuBank.sol\":3121:3225  function getTotalBalance() external view returns (uint256) {... */\n    tag_3:\n      callvalue\n      dup1\n      iszero\n      tag_17\n      jumpi\n      0x00\n      dup1\n      revert\n    tag_17:\n      pop\n      tag_18\n      tag_19\n      jump\t// in\n    tag_18:\n      mload(0x40)\n      tag_20\n      swap2\n      swap1\n      tag_21\n      jump\t// in\n    tag_20:\n      mload(0x40)\n      dup1\n      swap2\n      sub\n      swap1\n      return\n        /* \"KipuBank.sol\":2107:2353  function withdraw(uint256 _amount) ... */\n    tag_4:\n      callvalue\n      dup1\n      iszero\n      tag_22\n      jumpi\n      0x00\n      dup1\n      revert\n    tag_22:\n      pop\n      tag_23\n      0x04\n      dup1\n      calldatasize\n      sub\n      dup2\n      add\n      swap1\n      tag_24\n      swap2\n      swap1\n      tag_25\n      jump\t// in\n    tag_24:\n      tag_26\n      jump\t// in\n    tag_23:\n      stop\n        /* \"KipuBank.sol\":348:398  uint256 public constant WITHDRAWAL_LIMIT = 1 ether */\n    tag_5:\n      callvalue\n      dup1\n      iszero\n      tag_27\n      jumpi\n      0x00\n      dup1\n      revert\n    tag_27:\n      pop\n      tag_28\n      tag_29\n      jump\t// in\n    tag_28:\n      mload(0x40)\n      tag_30\n      swap2\n      swap1\n      tag_21\n      jump\t// in\n    tag_30:\n      mload(0x40)\n      dup1\n      swap2\n      sub\n      swap1\n      return\n        /* \"KipuBank.sol\":1753:1991  function deposit() external payable withinBankCap(msg.value) {... */\n    tag_6:\n      tag_31\n      tag_32\n      jump\t// in\n    tag_31:\n      stop\n        /* \"KipuBank.sol\":404:436  uint256 public immutable bankCap */\n    tag_7:\n      callvalue\n      dup1\n      iszero\n      tag_33\n      jumpi\n      0x00\n      dup1\n      revert\n    tag_33:\n      pop\n      tag_34\n      tag_35\n      jump\t// in\n    tag_34:\n      mload(0x40)\n      tag_36\n      swap2\n      swap1\n      tag_21\n      jump\t// in\n    tag_36:\n      mload(0x40)\n      dup1\n      swap2\n      sub\n      swap1\n      return\n        /* \"KipuBank.sol\":2894:3000  function getBalance(address _user) external view returns (uint256) {... */\n    tag_8:\n      callvalue\n      dup1\n      iszero\n      tag_37\n      jumpi\n      0x00\n      dup1\n      revert\n    tag_37:\n      pop\n      tag_38\n      0x04\n      dup1\n      calldatasize\n      sub\n      dup2\n      add\n      swap1\n      tag_39\n      swap2\n      swap1\n      tag_40\n      jump\t// in\n    tag_39:\n      tag_41\n      jump\t// in\n    tag_38:\n      mload(0x40)\n      tag_42\n      swap2\n      swap1\n      tag_21\n      jump\t// in\n    tag_42:\n      mload(0x40)\n      dup1\n      swap2\n      sub\n      swap1\n      return\n        /* \"KipuBank.sol\":3121:3225  function getTotalBalance() external view returns (uint256) {... */\n    tag_19:\n        /* \"KipuBank.sol\":3171:3178  uint256 */\n      0x00\n        /* \"KipuBank.sol\":3197:3218  address(this).balance */\n      selfbalance\n        /* \"KipuBank.sol\":3190:3218  return address(this).balance */\n      swap1\n      pop\n        /* \"KipuBank.sol\":3121:3225  function getTotalBalance() external view returns (uint256) {... */\n      swap1\n      jump\t// out\n        /* \"KipuBank.sol\":2107:2353  function withdraw(uint256 _amount) ... */\n    tag_26:\n        /* \"KipuBank.sol\":2191:2198  _amount */\n      dup1\n        /* \"KipuBank.sol\":391:398  1 ether */\n      0x0de0b6b3a7640000\n        /* \"KipuBank.sol\":1480:1487  _amount */\n      dup2\n        /* \"KipuBank.sol\":1480:1506  _amount > WITHDRAWAL_LIMIT */\n      gt\n        /* \"KipuBank.sol\":1476:1564  if (_amount > WITHDRAWAL_LIMIT) {... */\n      iszero\n      tag_45\n      jumpi\n        /* \"KipuBank.sol\":1529:1553  ExceedsWithdrawalLimit() */\n      mload(0x40)\n      0x1ca18f6600000000000000000000000000000000000000000000000000000000\n      dup2\n      mstore\n      0x04\n      add\n      mload(0x40)\n      dup1\n      swap2\n      sub\n      swap1\n      revert\n        /* \"KipuBank.sol\":1476:1564  if (_amount > WITHDRAWAL_LIMIT) {... */\n    tag_45:\n        /* \"KipuBank.sol\":1600:1607  _amount */\n      dup1\n        /* \"KipuBank.sol\":1577:1585  balances */\n      0x00\n        /* \"KipuBank.sol\":1577:1597  balances[msg.sender] */\n      dup1\n        /* \"KipuBank.sol\":1586:1596  msg.sender */\n      caller\n        /* \"KipuBank.sol\":1577:1597  balances[msg.sender] */\n      0xffffffffffffffffffffffffffffffffffffffff\n      and\n      0xffffffffffffffffffffffffffffffffffffffff\n      and\n      dup2\n      mstore\n      0x20\n      add\n      swap1\n      dup2\n      mstore\n      0x20\n      add\n      0x00\n      keccak256\n      sload\n        /* \"KipuBank.sol\":1577:1607  balances[msg.sender] < _amount */\n      lt\n        /* \"KipuBank.sol\":1573:1662  if (balances[msg.sender] < _amount) {... */\n      iszero\n      tag_46\n      jumpi\n        /* \"KipuBank.sol\":1630:1651  InsufficientBalance() */\n      mload(0x40)\n      0xf4d678b800000000000000000000000000000000000000000000000000000000\n      dup2\n      mstore\n      0x04\n      add\n      mload(0x40)\n      dup1\n      swap2\n      sub\n      swap1\n      revert\n        /* \"KipuBank.sol\":1573:1662  if (balances[msg.sender] < _amount) {... */\n    tag_46:\n        /* \"KipuBank.sol\":2249:2256  _amount */\n      dup2\n        /* \"KipuBank.sol\":2225:2233  balances */\n      0x00\n        /* \"KipuBank.sol\":2225:2245  balances[msg.sender] */\n      dup1\n        /* \"KipuBank.sol\":2234:2244  msg.sender */\n      caller\n        /* \"KipuBank.sol\":2225:2245  balances[msg.sender] */\n      0xffffffffffffffffffffffffffffffffffffffff\n      and\n      0xffffffffffffffffffffffffffffffffffffffff\n      and\n      dup2\n      mstore\n      0x20\n      add\n      swap1\n      dup2\n      mstore\n      0x20\n      add\n      0x00\n      keccak256\n      0x00\n        /* \"KipuBank.sol\":2225:2256  balances[msg.sender] -= _amount */\n      dup3\n      dup3\n      sload\n      tag_48\n      swap2\n      swap1\n      tag_49\n      jump\t// in\n    tag_48:\n      swap3\n      pop\n      pop\n      dup2\n      swap1\n      sstore\n      pop\n        /* \"KipuBank.sol\":2266:2300  _safeTransfer(msg.sender, _amount) */\n      tag_50\n        /* \"KipuBank.sol\":2280:2290  msg.sender */\n      caller\n        /* \"KipuBank.sol\":2292:2299  _amount */\n      dup4\n        /* \"KipuBank.sol\":2266:2279  _safeTransfer */\n      tag_51\n        /* \"KipuBank.sol\":2266:2300  _safeTransfer(msg.sender, _amount) */\n      jump\t// in\n    tag_50:\n        /* \"KipuBank.sol\":2326:2336  msg.sender */\n      caller\n        /* \"KipuBank.sol\":2315:2346  Withdrawal(msg.sender, _amount) */\n      0xffffffffffffffffffffffffffffffffffffffff\n      and\n      0x7fcf532c15f0a6db0bd6d0e038bea71d30d808c7d98cb3bf7268a95bf5081b65\n        /* \"KipuBank.sol\":2338:2345  _amount */\n      dup4\n        /* \"KipuBank.sol\":2315:2346  Withdrawal(msg.sender, _amount) */\n      mload(0x40)\n      tag_52\n      swap2\n      swap1\n      tag_21\n      jump\t// in\n    tag_52:\n      mload(0x40)\n      dup1\n      swap2\n      sub\n      swap1\n      log2\n        /* \"KipuBank.sol\":2107:2353  function withdraw(uint256 _amount) ... */\n      pop\n      pop\n      jump\t// out\n        /* \"KipuBank.sol\":348:398  uint256 public constant WITHDRAWAL_LIMIT = 1 ether */\n    tag_29:\n        /* \"KipuBank.sol\":391:398  1 ether */\n      0x0de0b6b3a7640000\n        /* \"KipuBank.sol\":348:398  uint256 public constant WITHDRAWAL_LIMIT = 1 ether */\n      dup2\n      jump\t// out\n        /* \"KipuBank.sol\":1753:1991  function deposit() external payable withinBankCap(msg.value) {... */\n    tag_32:\n        /* \"KipuBank.sol\":1803:1812  msg.value */\n      callvalue\n        /* \"KipuBank.sol\":1203:1210  bankCap */\n      immutable(\"0x939eb54753ed0cc7e2272bfb34cbe098308c93936ed54d79078f76ade0b2e789\")\n        /* \"KipuBank.sol\":1193:1200  _amount */\n      dup2\n        /* \"KipuBank.sol\":1169:1190  address(this).balance */\n      selfbalance\n        /* \"KipuBank.sol\":1169:1200  address(this).balance + _amount */\n      tag_54\n      swap2\n      swap1\n      tag_55\n      jump\t// in\n    tag_54:\n        /* \"KipuBank.sol\":1169:1210  address(this).balance + _amount > bankCap */\n      gt\n        /* \"KipuBank.sol\":1165:1265  if (address(this).balance + _amount > bankCap) {... */\n      iszero\n      tag_56\n      jumpi\n        /* \"KipuBank.sol\":1233:1254  ExceedsBankCapacity() */\n      mload(0x40)\n      0xf335b18b00000000000000000000000000000000000000000000000000000000\n      dup2\n      mstore\n      0x04\n      add\n      mload(0x40)\n      dup1\n      swap2\n      sub\n      swap1\n      revert\n        /* \"KipuBank.sol\":1165:1265  if (address(this).balance + _amount > bankCap) {... */\n    tag_56:\n        /* \"KipuBank.sol\":1844:1845  0 */\n      0x00\n        /* \"KipuBank.sol\":1832:1841  msg.value */\n      callvalue\n        /* \"KipuBank.sol\":1832:1845  msg.value > 0 */\n      gt\n        /* \"KipuBank.sol\":1824:1887  require(msg.value > 0, \"Deposit amount must be greater than 0\") */\n      tag_58\n      jumpi\n      mload(0x40)\n      0x08c379a000000000000000000000000000000000000000000000000000000000\n      dup2\n      mstore\n      0x04\n      add\n      tag_59\n      swap1\n      tag_60\n      jump\t// in\n    tag_59:\n      mload(0x40)\n      dup1\n      swap2\n      sub\n      swap1\n      revert\n    tag_58:\n        /* \"KipuBank.sol\":1930:1939  msg.value */\n      callvalue\n        /* \"KipuBank.sol\":1906:1914  balances */\n      0x00\n        /* \"KipuBank.sol\":1906:1926  balances[msg.sender] */\n      dup1\n        /* \"KipuBank.sol\":1915:1925  msg.sender */\n      caller\n        /* \"KipuBank.sol\":1906:1926  balances[msg.sender] */\n      0xffffffffffffffffffffffffffffffffffffffff\n      and\n      0xffffffffffffffffffffffffffffffffffffffff\n      and\n      dup2\n      mstore\n      0x20\n      add\n      swap1\n      dup2\n      mstore\n      0x20\n      add\n      0x00\n      keccak256\n      0x00\n        /* \"KipuBank.sol\":1906:1939  balances[msg.sender] += msg.value */\n      dup3\n      dup3\n      sload\n      tag_61\n      swap2\n      swap1\n      tag_55\n      jump\t// in\n    tag_61:\n      swap3\n      pop\n      pop\n      dup2\n      swap1\n      sstore\n      pop\n        /* \"KipuBank.sol\":1962:1972  msg.sender */\n      caller\n        /* \"KipuBank.sol\":1954:1984  Deposit(msg.sender, msg.value) */\n      0xffffffffffffffffffffffffffffffffffffffff\n      and\n      0xe1fffcc4923d04b559f4d29a8bfc6cda04eb5b0d3c460751c2402c5c5cc9109c\n        /* \"KipuBank.sol\":1974:1983  msg.value */\n      callvalue\n        /* \"KipuBank.sol\":1954:1984  Deposit(msg.sender, msg.value) */\n      mload(0x40)\n      tag_62\n      swap2\n      swap1\n      tag_21\n      jump\t// in\n    tag_62:\n      mload(0x40)\n      dup1\n      swap2\n      sub\n      swap1\n      log2\n        /* \"KipuBank.sol\":1753:1991  function deposit() external payable withinBankCap(msg.value) {... */\n      pop\n      jump\t// out\n        /* \"KipuBank.sol\":404:436  uint256 public immutable bankCap */\n    tag_35:\n      immutable(\"0x939eb54753ed0cc7e2272bfb34cbe098308c93936ed54d79078f76ade0b2e789\")\n      dup2\n      jump\t// out\n        /* \"KipuBank.sol\":2894:3000  function getBalance(address _user) external view returns (uint256) {... */\n    tag_41:\n        /* \"KipuBank.sol\":2952:2959  uint256 */\n      0x00\n        /* \"KipuBank.sol\":2978:2986  balances */\n      dup1\n        /* \"KipuBank.sol\":2978:2993  balances[_user] */\n      0x00\n        /* \"KipuBank.sol\":2987:2992  _user */\n      dup4\n        /* \"KipuBank.sol\":2978:2993  balances[_user] */\n      0xffffffffffffffffffffffffffffffffffffffff\n      and\n      0xffffffffffffffffffffffffffffffffffffffff\n      and\n      dup2\n      mstore\n      0x20\n      add\n      swap1\n      dup2\n      mstore\n      0x20\n      add\n      0x00\n      keccak256\n      sload\n        /* \"KipuBank.sol\":2971:2993  return balances[_user] */\n      swap1\n      pop\n        /* \"KipuBank.sol\":2894:3000  function getBalance(address _user) external view returns (uint256) {... */\n      swap2\n      swap1\n      pop\n      jump\t// out\n        /* \"KipuBank.sol\":2538:2743  function _safeTransfer(address _to, uint256 _amount) private {... */\n    tag_51:\n        /* \"KipuBank.sol\":2610:2622  bool success */\n      0x00\n        /* \"KipuBank.sol\":2636:2639  _to */\n      dup3\n        /* \"KipuBank.sol\":2628:2645  payable(_to).call */\n      0xffffffffffffffffffffffffffffffffffffffff\n      and\n        /* \"KipuBank.sol\":2653:2660  _amount */\n      dup3\n        /* \"KipuBank.sol\":2628:2665  payable(_to).call{value: _amount}(\"\") */\n      mload(0x40)\n      tag_65\n      swap1\n      tag_66\n      jump\t// in\n    tag_65:\n      0x00\n      mload(0x40)\n      dup1\n      dup4\n      sub\n      dup2\n      dup6\n      dup8\n      gas\n      call\n      swap3\n      pop\n      pop\n      pop\n      returndatasize\n      dup1\n      0x00\n      dup2\n      eq\n      tag_69\n      jumpi\n      mload(0x40)\n      swap2\n      pop\n      and(add(returndatasize, 0x3f), not(0x1f))\n      dup3\n      add\n      0x40\n      mstore\n      returndatasize\n      dup3\n      mstore\n      returndatasize\n      0x00\n      0x20\n      dup5\n      add\n      returndatacopy\n      jump(tag_68)\n    tag_69:\n      0x60\n      swap2\n      pop\n    tag_68:\n      pop\n        /* \"KipuBank.sol\":2609:2665  (bool success, ) = payable(_to).call{value: _amount}(\"\") */\n      pop\n      swap1\n      pop\n        /* \"KipuBank.sol\":2680:2687  success */\n      dup1\n        /* \"KipuBank.sol\":2675:2737  if (!success) {... */\n      tag_70\n      jumpi\n        /* \"KipuBank.sol\":2710:2726  TransferFailed() */\n      mload(0x40)\n      0x90b8ec1800000000000000000000000000000000000000000000000000000000\n      dup2\n      mstore\n      0x04\n      add\n      mload(0x40)\n      dup1\n      swap2\n      sub\n      swap1\n      revert\n        /* \"KipuBank.sol\":2675:2737  if (!success) {... */\n    tag_70:\n        /* \"KipuBank.sol\":2599:2743  {... */\n      pop\n        /* \"KipuBank.sol\":2538:2743  function _safeTransfer(address _to, uint256 _amount) private {... */\n      pop\n      pop\n      jump\t// out\n        /* \"#utility.yul\":7:176   */\n    tag_71:\n        /* \"#utility.yul\":91:102   */\n      0x00\n        /* \"#utility.yul\":125:131   */\n      dup3\n        /* \"#utility.yul\":120:123   */\n      dup3\n        /* \"#utility.yul\":113:132   */\n      mstore\n        /* \"#utility.yul\":165:169   */\n      0x20\n        /* \"#utility.yul\":160:163   */\n      dup3\n        /* \"#utility.yul\":156:170   */\n      add\n        /* \"#utility.yul\":141:170   */\n      swap1\n      pop\n        /* \"#utility.yul\":7:176   */\n      swap3\n      swap2\n      pop\n      pop\n      jump\t// out\n        /* \"#utility.yul\":182:364   */\n    tag_72:\n        /* \"#utility.yul\":322:356   */\n      0x557365206465706f7369742066756e6374696f6e20746f2073656e6420455448\n        /* \"#utility.yul\":318:319   */\n      0x00\n        /* \"#utility.yul\":310:316   */\n      dup3\n        /* \"#utility.yul\":306:320   */\n      add\n        /* \"#utility.yul\":299:357   */\n      mstore\n        /* \"#utility.yul\":182:364   */\n      pop\n      jump\t// out\n        /* \"#utility.yul\":370:736   */\n    tag_73:\n        /* \"#utility.yul\":512:515   */\n      0x00\n        /* \"#utility.yul\":533:600   */\n      tag_97\n        /* \"#utility.yul\":597:599   */\n      0x20\n        /* \"#utility.yul\":592:595   */\n      dup4\n        /* \"#utility.yul\":533:600   */\n      tag_71\n      jump\t// in\n    tag_97:\n        /* \"#utility.yul\":526:600   */\n      swap2\n      pop\n        /* \"#utility.yul\":609:702   */\n      tag_98\n        /* \"#utility.yul\":698:701   */\n      dup3\n        /* \"#utility.yul\":609:702   */\n      tag_72\n      jump\t// in\n    tag_98:\n        /* \"#utility.yul\":727:729   */\n      0x20\n        /* \"#utility.yul\":722:725   */\n      dup3\n        /* \"#utility.yul\":718:730   */\n      add\n        /* \"#utility.yul\":711:730   */\n      swap1\n      pop\n        /* \"#utility.yul\":370:736   */\n      swap2\n      swap1\n      pop\n      jump\t// out\n        /* \"#utility.yul\":742:1161   */\n    tag_12:\n        /* \"#utility.yul\":908:912   */\n      0x00\n        /* \"#utility.yul\":946:948   */\n      0x20\n        /* \"#utility.yul\":935:944   */\n      dup3\n        /* \"#utility.yul\":931:949   */\n      add\n        /* \"#utility.yul\":923:949   */\n      swap1\n      pop\n        /* \"#utility.yul\":995:1004   */\n      dup2\n        /* \"#utility.yul\":989:993   */\n      dup2\n        /* \"#utility.yul\":985:1005   */\n      sub\n        /* \"#utility.yul\":981:982   */\n      0x00\n        /* \"#utility.yul\":970:979   */\n      dup4\n        /* \"#utility.yul\":966:983   */\n      add\n        /* \"#utility.yul\":959:1006   */\n      mstore\n        /* \"#utility.yul\":1023:1154   */\n      tag_100\n        /* \"#utility.yul\":1149:1153   */\n      dup2\n        /* \"#utility.yul\":1023:1154   */\n      tag_73\n      jump\t// in\n    tag_100:\n        /* \"#utility.yul\":1015:1154   */\n      swap1\n      pop\n        /* \"#utility.yul\":742:1161   */\n      swap2\n      swap1\n      pop\n      jump\t// out\n        /* \"#utility.yul\":1167:1336   */\n    tag_74:\n        /* \"#utility.yul\":1307:1328   */\n      0x496e76616c6964207472616e73616374696f6e00000000000000000000000000\n        /* \"#utility.yul\":1303:1304   */\n      0x00\n        /* \"#utility.yul\":1295:1301   */\n      dup3\n        /* \"#utility.yul\":1291:1305   */\n      add\n        /* \"#utility.yul\":1284:1329   */\n      mstore\n        /* \"#utility.yul\":1167:1336   */\n      pop\n      jump\t// out\n        /* \"#utility.yul\":1342:1708   */\n    tag_75:\n        /* \"#utility.yul\":1484:1487   */\n      0x00\n        /* \"#utility.yul\":1505:1572   */\n      tag_103\n        /* \"#utility.yul\":1569:1571   */\n      0x13\n        /* \"#utility.yul\":1564:1567   */\n      dup4\n        /* \"#utility.yul\":1505:1572   */\n      tag_71\n      jump\t// in\n    tag_103:\n        /* \"#utility.yul\":1498:1572   */\n      swap2\n      pop\n        /* \"#utility.yul\":1581:1674   */\n      tag_104\n        /* \"#utility.yul\":1670:1673   */\n      dup3\n        /* \"#utility.yul\":1581:1674   */\n      tag_74\n      jump\t// in\n    tag_104:\n        /* \"#utility.yul\":1699:1701   */\n      0x20\n        /* \"#utility.yul\":1694:1697   */\n      dup3\n        /* \"#utility.yul\":1690:1702   */\n      add\n        /* \"#utility.yul\":1683:1702   */\n      swap1\n      pop\n        /* \"#utility.yul\":1342:1708   */\n      swap2\n      swap1\n      pop\n      jump\t// out\n        /* \"#utility.yul\":1714:2133   */\n    tag_16:\n        /* \"#utility.yul\":1880:1884   */\n      0x00\n        /* \"#utility.yul\":1918:1920   */\n      0x20\n        /* \"#utility.yul\":1907:1916   */\n      dup3\n        /* \"#utility.yul\":1903:1921   */\n      add\n        /* \"#utility.yul\":1895:1921   */\n      swap1\n      pop\n        /* \"#utility.yul\":1967:1976   */\n      dup2\n        /* \"#utility.yul\":1961:1965   */\n      dup2\n        /* \"#utility.yul\":1957:1977   */\n      sub\n        /* \"#utility.yul\":1953:1954   */\n      0x00\n        /* \"#utility.yul\":1942:1951   */\n      dup4\n        /* \"#utility.yul\":1938:1955   */\n      add\n        /* \"#utility.yul\":1931:1978   */\n      mstore\n        /* \"#utility.yul\":1995:2126   */\n      tag_106\n        /* \"#utility.yul\":2121:2125   */\n      dup2\n        /* \"#utility.yul\":1995:2126   */\n      tag_75\n      jump\t// in\n    tag_106:\n        /* \"#utility.yul\":1987:2126   */\n      swap1\n      pop\n        /* \"#utility.yul\":1714:2133   */\n      swap2\n      swap1\n      pop\n      jump\t// out\n        /* \"#utility.yul\":2139:2216   */\n    tag_76:\n        /* \"#utility.yul\":2176:2183   */\n      0x00\n        /* \"#utility.yul\":2205:2210   */\n      dup2\n        /* \"#utility.yul\":2194:2210   */\n      swap1\n      pop\n        /* \"#utility.yul\":2139:2216   */\n      swap2\n      swap1\n      pop\n      jump\t// out\n        /* \"#utility.yul\":2222:2340   */\n    tag_77:\n        /* \"#utility.yul\":2309:2333   */\n      tag_109\n        /* \"#utility.yul\":2327:2332   */\n      dup2\n        /* \"#utility.yul\":2309:2333   */\n      tag_76\n      jump\t// in\n    tag_109:\n        /* \"#utility.yul\":2304:2307   */\n      dup3\n        /* \"#utility.yul\":2297:2334   */\n      mstore\n        /* \"#utility.yul\":2222:2340   */\n      pop\n      pop\n      jump\t// out\n        /* \"#utility.yul\":2346:2568   */\n    tag_21:\n        /* \"#utility.yul\":2439:2443   */\n      0x00\n        /* \"#utility.yul\":2477:2479   */\n      0x20\n        /* \"#utility.yul\":2466:2475   */\n      dup3\n        /* \"#utility.yul\":2462:2480   */\n      add\n        /* \"#utility.yul\":2454:2480   */\n      swap1\n      pop\n        /* \"#utility.yul\":2490:2561   */\n      tag_111\n        /* \"#utility.yul\":2558:2559   */\n      0x00\n        /* \"#utility.yul\":2547:2556   */\n      dup4\n        /* \"#utility.yul\":2543:2560   */\n      add\n        /* \"#utility.yul\":2534:2540   */\n      dup5\n        /* \"#utility.yul\":2490:2561   */\n      tag_77\n      jump\t// in\n    tag_111:\n        /* \"#utility.yul\":2346:2568   */\n      swap3\n      swap2\n      pop\n      pop\n      jump\t// out\n        /* \"#utility.yul\":2655:2772   */\n    tag_79:\n        /* \"#utility.yul\":2764:2765   */\n      0x00\n        /* \"#utility.yul\":2761:2762   */\n      dup1\n        /* \"#utility.yul\":2754:2766   */\n      revert\n        /* \"#utility.yul\":2901:3023   */\n    tag_81:\n        /* \"#utility.yul\":2974:2998   */\n      tag_116\n        /* \"#utility.yul\":2992:2997   */\n      dup2\n        /* \"#utility.yul\":2974:2998   */\n      tag_76\n      jump\t// in\n    tag_116:\n        /* \"#utility.yul\":2967:2972   */\n      dup2\n        /* \"#utility.yul\":2964:2999   */\n      eq\n        /* \"#utility.yul\":2954:3017   */\n      tag_117\n      jumpi\n        /* \"#utility.yul\":3013:3014   */\n      0x00\n        /* \"#utility.yul\":3010:3011   */\n      dup1\n        /* \"#utility.yul\":3003:3015   */\n      revert\n        /* \"#utility.yul\":2954:3017   */\n    tag_117:\n        /* \"#utility.yul\":2901:3023   */\n      pop\n      jump\t// out\n        /* \"#utility.yul\":3029:3168   */\n    tag_82:\n        /* \"#utility.yul\":3075:3080   */\n      0x00\n        /* \"#utility.yul\":3113:3119   */\n      dup2\n        /* \"#utility.yul\":3100:3120   */\n      calldataload\n        /* \"#utility.yul\":3091:3120   */\n      swap1\n      pop\n        /* \"#utility.yul\":3129:3162   */\n      tag_119\n        /* \"#utility.yul\":3156:3161   */\n      dup2\n        /* \"#utility.yul\":3129:3162   */\n      tag_81\n      jump\t// in\n    tag_119:\n        /* \"#utility.yul\":3029:3168   */\n      swap3\n      swap2\n      pop\n      pop\n      jump\t// out\n        /* \"#utility.yul\":3174:3503   */\n    tag_25:\n        /* \"#utility.yul\":3233:3239   */\n      0x00\n        /* \"#utility.yul\":3282:3284   */\n      0x20\n        /* \"#utility.yul\":3270:3279   */\n      dup3\n        /* \"#utility.yul\":3261:3268   */\n      dup5\n        /* \"#utility.yul\":3257:3280   */\n      sub\n        /* \"#utility.yul\":3253:3285   */\n      slt\n        /* \"#utility.yul\":3250:3369   */\n      iszero\n      tag_121\n      jumpi\n        /* \"#utility.yul\":3288:3367   */\n      tag_122\n      tag_79\n      jump\t// in\n    tag_122:\n        /* \"#utility.yul\":3250:3369   */\n    tag_121:\n        /* \"#utility.yul\":3408:3409   */\n      0x00\n        /* \"#utility.yul\":3433:3486   */\n      tag_123\n        /* \"#utility.yul\":3478:3485   */\n      dup5\n        /* \"#utility.yul\":3469:3475   */\n      dup3\n        /* \"#utility.yul\":3458:3467   */\n      dup6\n        /* \"#utility.yul\":3454:3476   */\n      add\n        /* \"#utility.yul\":3433:3486   */\n      tag_82\n      jump\t// in\n    tag_123:\n        /* \"#utility.yul\":3423:3486   */\n      swap2\n      pop\n        /* \"#utility.yul\":3379:3496   */\n      pop\n        /* \"#utility.yul\":3174:3503   */\n      swap3\n      swap2\n      pop\n      pop\n      jump\t// out\n        /* \"#utility.yul\":3509:3635   */\n    tag_83:\n        /* \"#utility.yul\":3546:3553   */\n      0x00\n        /* \"#utility.yul\":3586:3628   */\n      0xffffffffffffffffffffffffffffffffffffffff\n        /* \"#utility.yul\":3579:3584   */\n      dup3\n        /* \"#utility.yul\":3575:3629   */\n      and\n        /* \"#utility.yul\":3564:3629   */\n      swap1\n      pop\n        /* \"#utility.yul\":3509:3635   */\n      swap2\n      swap1\n      pop\n      jump\t// out\n        /* \"#utility.yul\":3641:3737   */\n    tag_84:\n        /* \"#utility.yul\":3678:3685   */\n      0x00\n        /* \"#utility.yul\":3707:3731   */\n      tag_126\n        /* \"#utility.yul\":3725:3730   */\n      dup3\n        /* \"#utility.yul\":3707:3731   */\n      tag_83\n      jump\t// in\n    tag_126:\n        /* \"#utility.yul\":3696:3731   */\n      swap1\n      pop\n        /* \"#utility.yul\":3641:3737   */\n      swap2\n      swap1\n      pop\n      jump\t// out\n        /* \"#utility.yul\":3743:3865   */\n    tag_85:\n        /* \"#utility.yul\":3816:3840   */\n      tag_128\n        /* \"#utility.yul\":3834:3839   */\n      dup2\n        /* \"#utility.yul\":3816:3840   */\n      tag_84\n      jump\t// in\n    tag_128:\n        /* \"#utility.yul\":3809:3814   */\n      dup2\n        /* \"#utility.yul\":3806:3841   */\n      eq\n        /* \"#utility.yul\":3796:3859   */\n      tag_129\n      jumpi\n        /* \"#utility.yul\":3855:3856   */\n      0x00\n        /* \"#utility.yul\":3852:3853   */\n      dup1\n        /* \"#utility.yul\":3845:3857   */\n      revert\n        /* \"#utility.yul\":3796:3859   */\n    tag_129:\n        /* \"#utility.yul\":3743:3865   */\n      pop\n      jump\t// out\n        /* \"#utility.yul\":3871:4010   */\n    tag_86:\n        /* \"#utility.yul\":3917:3922   */\n      0x00\n        /* \"#utility.yul\":3955:3961   */\n      dup2\n        /* \"#utility.yul\":3942:3962   */\n      calldataload\n        /* \"#utility.yul\":3933:3962   */\n      swap1\n      pop\n        /* \"#utility.yul\":3971:4004   */\n      tag_131\n        /* \"#utility.yul\":3998:4003   */\n      dup2\n        /* \"#utility.yul\":3971:4004   */\n      tag_85\n      jump\t// in\n    tag_131:\n        /* \"#utility.yul\":3871:4010   */\n      swap3\n      swap2\n      pop\n      pop\n      jump\t// out\n        /* \"#utility.yul\":4016:4345   */\n    tag_40:\n        /* \"#utility.yul\":4075:4081   */\n      0x00\n        /* \"#utility.yul\":4124:4126   */\n      0x20\n        /* \"#utility.yul\":4112:4121   */\n      dup3\n        /* \"#utility.yul\":4103:4110   */\n      dup5\n        /* \"#utility.yul\":4099:4122   */\n      sub\n        /* \"#utility.yul\":4095:4127   */\n      slt\n        /* \"#utility.yul\":4092:4211   */\n      iszero\n      tag_133\n      jumpi\n        /* \"#utility.yul\":4130:4209   */\n      tag_134\n      tag_79\n      jump\t// in\n    tag_134:\n        /* \"#utility.yul\":4092:4211   */\n    tag_133:\n        /* \"#utility.yul\":4250:4251   */\n      0x00\n        /* \"#utility.yul\":4275:4328   */\n      tag_135\n        /* \"#utility.yul\":4320:4327   */\n      dup5\n        /* \"#utility.yul\":4311:4317   */\n      dup3\n        /* \"#utility.yul\":4300:4309   */\n      dup6\n        /* \"#utility.yul\":4296:4318   */\n      add\n        /* \"#utility.yul\":4275:4328   */\n      tag_86\n      jump\t// in\n    tag_135:\n        /* \"#utility.yul\":4265:4328   */\n      swap2\n      pop\n        /* \"#utility.yul\":4221:4338   */\n      pop\n        /* \"#utility.yul\":4016:4345   */\n      swap3\n      swap2\n      pop\n      pop\n      jump\t// out\n        /* \"#utility.yul\":4351:4531   */\n    tag_87:\n        /* \"#utility.yul\":4399:4476   */\n      0x4e487b7100000000000000000000000000000000000000000000000000000000\n        /* \"#utility.yul\":4396:4397   */\n      0x00\n        /* \"#utility.yul\":4389:4477   */\n      mstore\n        /* \"#utility.yul\":4496:4500   */\n      0x11\n        /* \"#utility.yul\":4493:4494   */\n      0x04\n        /* \"#utility.yul\":4486:4501   */\n      mstore\n        /* \"#utility.yul\":4520:4524   */\n      0x24\n        /* \"#utility.yul\":4517:4518   */\n      0x00\n        /* \"#utility.yul\":4510:4525   */\n      revert\n        /* \"#utility.yul\":4537:4731   */\n    tag_49:\n        /* \"#utility.yul\":4577:4581   */\n      0x00\n        /* \"#utility.yul\":4597:4617   */\n      tag_138\n        /* \"#utility.yul\":4615:4616   */\n      dup3\n        /* \"#utility.yul\":4597:4617   */\n      tag_76\n      jump\t// in\n    tag_138:\n        /* \"#utility.yul\":4592:4617   */\n      swap2\n      pop\n        /* \"#utility.yul\":4631:4651   */\n      tag_139\n        /* \"#utility.yul\":4649:4650   */\n      dup4\n        /* \"#utility.yul\":4631:4651   */\n      tag_76\n      jump\t// in\n    tag_139:\n        /* \"#utility.yul\":4626:4651   */\n      swap3\n      pop\n        /* \"#utility.yul\":4675:4676   */\n      dup3\n        /* \"#utility.yul\":4672:4673   */\n      dup3\n        /* \"#utility.yul\":4668:4677   */\n      sub\n        /* \"#utility.yul\":4660:4677   */\n      swap1\n      pop\n        /* \"#utility.yul\":4699:4700   */\n      dup2\n        /* \"#utility.yul\":4693:4697   */\n      dup2\n        /* \"#utility.yul\":4690:4701   */\n      gt\n        /* \"#utility.yul\":4687:4724   */\n      iszero\n      tag_140\n      jumpi\n        /* \"#utility.yul\":4704:4722   */\n      tag_141\n      tag_87\n      jump\t// in\n    tag_141:\n        /* \"#utility.yul\":4687:4724   */\n    tag_140:\n        /* \"#utility.yul\":4537:4731   */\n      swap3\n      swap2\n      pop\n      pop\n      jump\t// out\n        /* \"#utility.yul\":4737:4928   */\n    tag_55:\n        /* \"#utility.yul\":4777:4780   */\n      0x00\n        /* \"#utility.yul\":4796:4816   */\n      tag_143\n        /* \"#utility.yul\":4814:4815   */\n      dup3\n        /* \"#utility.yul\":4796:4816   */\n      tag_76\n      jump\t// in\n    tag_143:\n        /* \"#utility.yul\":4791:4816   */\n      swap2\n      pop\n        /* \"#utility.yul\":4830:4850   */\n      tag_144\n        /* \"#utility.yul\":4848:4849   */\n      dup4\n        /* \"#utility.yul\":4830:4850   */\n      tag_76\n      jump\t// in\n    tag_144:\n        /* \"#utility.yul\":4825:4850   */\n      swap3\n      pop\n        /* \"#utility.yul\":4873:4874   */\n      dup3\n        /* \"#utility.yul\":4870:4871   */\n      dup3\n        /* \"#utility.yul\":4866:4875   */\n      add\n        /* \"#utility.yul\":4859:4875   */\n      swap1\n      pop\n        /* \"#utility.yul\":4894:4897   */\n      dup1\n        /* \"#utility.yul\":4891:4892   */\n      dup3\n        /* \"#utility.yul\":4888:4898   */\n      gt\n        /* \"#utility.yul\":4885:4921   */\n      iszero\n      tag_145\n      jumpi\n        /* \"#utility.yul\":4901:4919   */\n      tag_146\n      tag_87\n      jump\t// in\n    tag_146:\n        /* \"#utility.yul\":4885:4921   */\n    tag_145:\n        /* \"#utility.yul\":4737:4928   */\n      swap3\n      swap2\n      pop\n      pop\n      jump\t// out\n        /* \"#utility.yul\":4934:5158   */\n    tag_88:\n        /* \"#utility.yul\":5074:5108   */\n      0x4465706f73697420616d6f756e74206d75737420626520677265617465722074\n        /* \"#utility.yul\":5070:5071   */\n      0x00\n        /* \"#utility.yul\":5062:5068   */\n      dup3\n        /* \"#utility.yul\":5058:5072   */\n      add\n        /* \"#utility.yul\":5051:5109   */\n      mstore\n        /* \"#utility.yul\":5143:5150   */\n      0x68616e2030000000000000000000000000000000000000000000000000000000\n        /* \"#utility.yul\":5138:5140   */\n      0x20\n        /* \"#utility.yul\":5130:5136   */\n      dup3\n        /* \"#utility.yul\":5126:5141   */\n      add\n        /* \"#utility.yul\":5119:5151   */\n      mstore\n        /* \"#utility.yul\":4934:5158   */\n      pop\n      jump\t// out\n        /* \"#utility.yul\":5164:5530   */\n    tag_89:\n        /* \"#utility.yul\":5306:5309   */\n      0x00\n        /* \"#utility.yul\":5327:5394   */\n      tag_149\n        /* \"#utility.yul\":5391:5393   */\n      0x25\n        /* \"#utility.yul\":5386:5389   */\n      dup4\n        /* \"#utility.yul\":5327:5394   */\n      tag_71\n      jump\t// in\n    tag_149:\n        /* \"#utility.yul\":5320:5394   */\n      swap2\n      pop\n        /* \"#utility.yul\":5403:5496   */\n      tag_150\n        /* \"#utility.yul\":5492:5495   */\n      dup3\n        /* \"#utility.yul\":5403:5496   */\n      tag_88\n      jump\t// in\n    tag_150:\n        /* \"#utility.yul\":5521:5523   */\n      0x40\n        /* \"#utility.yul\":5516:5519   */\n      dup3\n        /* \"#utility.yul\":5512:5524   */\n      add\n        /* \"#utility.yul\":5505:5524   */\n      swap1\n      pop\n        /* \"#utility.yul\":5164:5530   */\n      swap2\n      swap1\n      pop\n      jump\t// out\n        /* \"#utility.yul\":5536:5955   */\n    tag_60:\n        /* \"#utility.yul\":5702:5706   */\n      0x00\n        /* \"#utility.yul\":5740:5742   */\n      0x20\n        /* \"#utility.yul\":5729:5738   */\n      dup3\n        /* \"#utility.yul\":5725:5743   */\n      add\n        /* \"#utility.yul\":5717:5743   */\n      swap1\n      pop\n        /* \"#utility.yul\":5789:5798   */\n      dup2\n        /* \"#utility.yul\":5783:5787   */\n      dup2\n        /* \"#utility.yul\":5779:5799   */\n      sub\n        /* \"#utility.yul\":5775:5776   */\n      0x00\n        /* \"#utility.yul\":5764:5773   */\n      dup4\n        /* \"#utility.yul\":5760:5777   */\n      add\n        /* \"#utility.yul\":5753:5800   */\n      mstore\n        /* \"#utility.yul\":5817:5948   */\n      tag_152\n        /* \"#utility.yul\":5943:5947   */\n      dup2\n        /* \"#utility.yul\":5817:5948   */\n      tag_89\n      jump\t// in\n    tag_152:\n        /* \"#utility.yul\":5809:5948   */\n      swap1\n      pop\n        /* \"#utility.yul\":5536:5955   */\n      swap2\n      swap1\n      pop\n      jump\t// out\n        /* \"#utility.yul\":5961:6108   */\n    tag_90:\n        /* \"#utility.yul\":6062:6073   */\n      0x00\n        /* \"#utility.yul\":6099:6102   */\n      dup2\n        /* \"#utility.yul\":6084:6102   */\n      swap1\n      pop\n        /* \"#utility.yul\":5961:6108   */\n      swap3\n      swap2\n      pop\n      pop\n      jump\t// out\n        /* \"#utility.yul\":6114:6228   */\n    tag_91:\n      pop\n      jump\t// out\n        /* \"#utility.yul\":6234:6632   */\n    tag_92:\n        /* \"#utility.yul\":6393:6396   */\n      0x00\n        /* \"#utility.yul\":6414:6497   */\n      tag_156\n        /* \"#utility.yul\":6495:6496   */\n      0x00\n        /* \"#utility.yul\":6490:6493   */\n      dup4\n        /* \"#utility.yul\":6414:6497   */\n      tag_90\n      jump\t// in\n    tag_156:\n        /* \"#utility.yul\":6407:6497   */\n      swap2\n      pop\n        /* \"#utility.yul\":6506:6599   */\n      tag_157\n        /* \"#utility.yul\":6595:6598   */\n      dup3\n        /* \"#utility.yul\":6506:6599   */\n      tag_91\n      jump\t// in\n    tag_157:\n        /* \"#utility.yul\":6624:6625   */\n      0x00\n        /* \"#utility.yul\":6619:6622   */\n      dup3\n        /* \"#utility.yul\":6615:6626   */\n      add\n        /* \"#utility.yul\":6608:6626   */\n      swap1\n      pop\n        /* \"#utility.yul\":6234:6632   */\n      swap2\n      swap1\n      pop\n      jump\t// out\n        /* \"#utility.yul\":6638:7017   */\n    tag_66:\n        /* \"#utility.yul\":6822:6825   */\n      0x00\n        /* \"#utility.yul\":6844:6991   */\n      tag_159\n        /* \"#utility.yul\":6987:6990   */\n      dup3\n        /* \"#utility.yul\":6844:6991   */\n      tag_92\n      jump\t// in\n    tag_159:\n        /* \"#utility.yul\":6837:6991   */\n      swap2\n      pop\n        /* \"#utility.yul\":7008:7011   */\n      dup2\n        /* \"#utility.yul\":7001:7011   */\n      swap1\n      pop\n        /* \"#utility.yul\":6638:7017   */\n      swap2\n      swap1\n      pop\n      jump\t// out\n\n    auxdata: 0xa26469706673582212200033cd54e1323c9977264cf0f56195b42b2b2b7982c666010890564c3eba818d64736f6c634300081a0033\n}\n",
				"bytecode": {
					"linkReferences": {},
					"object": "60a060405234801561000f575f80fd5b50604051610ab8380380610ab8833981810160405281019061003191906100b8565b5f8111610073576040517f08c379a000000000000000000000000000000000000000000000000000000000815260040161006a90610163565b60405180910390fd5b806080818152505050610181565b5f80fd5b5f819050919050565b61009781610085565b81146100a1575f80fd5b50565b5f815190506100b28161008e565b92915050565b5f602082840312156100cd576100cc610081565b5b5f6100da848285016100a4565b91505092915050565b5f82825260208201905092915050565b7f42616e6b206361706163697479206d75737420626520677265617465722074685f8201527f616e203000000000000000000000000000000000000000000000000000000000602082015250565b5f61014d6024836100e3565b9150610158826100f3565b604082019050919050565b5f6020820190508181035f83015261017a81610141565b9050919050565b6080516109186101a05f395f818161033c015261048601526109185ff3fe608060405260043610610058575f3560e01c806312b58349146100d35780632e1a7d4d146100fd57806382ee0d1d14610125578063d0e30db01461014f578063ecbea24d14610159578063f8b2cb4f1461018357610098565b36610098576040517f08c379a000000000000000000000000000000000000000000000000000000000815260040161008f906105eb565b60405180910390fd5b6040517f08c379a00000000000000000000000000000000000000000000000000000000081526004016100ca90610653565b60405180910390fd5b3480156100de575f80fd5b506100e76101bf565b6040516100f49190610689565b60405180910390f35b348015610108575f80fd5b50610123600480360381019061011e91906106d0565b6101c6565b005b348015610130575f80fd5b5061013961032d565b6040516101469190610689565b60405180910390f35b610157610339565b005b348015610164575f80fd5b5061016d610484565b60405161017a9190610689565b60405180910390f35b34801561018e575f80fd5b506101a960048036038101906101a49190610755565b6104a8565b6040516101b69190610689565b60405180910390f35b5f47905090565b80670de0b6b3a7640000811115610209576040517f1ca18f6600000000000000000000000000000000000000000000000000000000815260040160405180910390fd5b805f803373ffffffffffffffffffffffffffffffffffffffff1673ffffffffffffffffffffffffffffffffffffffff1681526020019081526020015f2054101561027f576040517ff4d678b800000000000000000000000000000000000000000000000000000000815260040160405180910390fd5b815f803373ffffffffffffffffffffffffffffffffffffffff1673ffffffffffffffffffffffffffffffffffffffff1681526020019081526020015f205f8282546102ca91906107ad565b925050819055506102db33836104ed565b3373ffffffffffffffffffffffffffffffffffffffff167f7fcf532c15f0a6db0bd6d0e038bea71d30d808c7d98cb3bf7268a95bf5081b65836040516103219190610689565b60405180910390a25050565b670de0b6b3a764000081565b347f0000000000000000000000000000000000000000000000000000000000000000814761036791906107e0565b111561039f576040517ff335b18b00000000000000000000000000000000000000000000000000000000815260040160405180910390fd5b5f34116103e1576040517f08c379a00000000000000000000000000000000000000000000000000000000081526004016103d890610883565b60405180910390fd5b345f803373ffffffffffffffffffffffffffffffffffffffff1673ffffffffffffffffffffffffffffffffffffffff1681526020019081526020015f205f82825461042c91906107e0565b925050819055503373ffffffffffffffffffffffffffffffffffffffff167fe1fffcc4923d04b559f4d29a8bfc6cda04eb5b0d3c460751c2402c5c5cc9109c346040516104799190610689565b60405180910390a250565b7f000000000000000000000000000000000000000000000000000000000000000081565b5f805f8373ffffffffffffffffffffffffffffffffffffffff1673ffffffffffffffffffffffffffffffffffffffff1681526020019081526020015f20549050919050565b5f8273ffffffffffffffffffffffffffffffffffffffff1682604051610512906108ce565b5f6040518083038185875af1925050503d805f811461054c576040519150601f19603f3d011682016040523d82523d5f602084013e610551565b606091505b505090508061058c576040517f90b8ec1800000000000000000000000000000000000000000000000000000000815260040160405180910390fd5b505050565b5f82825260208201905092915050565b7f557365206465706f7369742066756e6374696f6e20746f2073656e64204554485f82015250565b5f6105d5602083610591565b91506105e0826105a1565b602082019050919050565b5f6020820190508181035f830152610602816105c9565b9050919050565b7f496e76616c6964207472616e73616374696f6e000000000000000000000000005f82015250565b5f61063d601383610591565b915061064882610609565b602082019050919050565b5f6020820190508181035f83015261066a81610631565b9050919050565b5f819050919050565b61068381610671565b82525050565b5f60208201905061069c5f83018461067a565b92915050565b5f80fd5b6106af81610671565b81146106b9575f80fd5b50565b5f813590506106ca816106a6565b92915050565b5f602082840312156106e5576106e46106a2565b5b5f6106f2848285016106bc565b91505092915050565b5f73ffffffffffffffffffffffffffffffffffffffff82169050919050565b5f610724826106fb565b9050919050565b6107348161071a565b811461073e575f80fd5b50565b5f8135905061074f8161072b565b92915050565b5f6020828403121561076a576107696106a2565b5b5f61077784828501610741565b91505092915050565b7f4e487b71000000000000000000000000000000000000000000000000000000005f52601160045260245ffd5b5f6107b782610671565b91506107c283610671565b92508282039050818111156107da576107d9610780565b5b92915050565b5f6107ea82610671565b91506107f583610671565b925082820190508082111561080d5761080c610780565b5b92915050565b7f4465706f73697420616d6f756e74206d757374206265206772656174657220745f8201527f68616e2030000000000000000000000000000000000000000000000000000000602082015250565b5f61086d602583610591565b915061087882610813565b604082019050919050565b5f6020820190508181035f83015261089a81610861565b9050919050565b5f81905092915050565b50565b5f6108b95f836108a1565b91506108c4826108ab565b5f82019050919050565b5f6108d8826108ae565b915081905091905056fea26469706673582212200033cd54e1323c9977264cf0f56195b42b2b2b7982c666010890564c3eba818d64736f6c634300081a0033",
					"opcodes": "PUSH1 0xA0 PUSH1 0x40 MSTORE CALLVALUE DUP1 ISZERO PUSH2 0xF JUMPI PUSH0 DUP1 REVERT JUMPDEST POP PUSH1 0x40 MLOAD PUSH2 0xAB8 CODESIZE SUB DUP1 PUSH2 0xAB8 DUP4 CODECOPY DUP2 DUP2 ADD PUSH1 0x40 MSTORE DUP2 ADD SWAP1 PUSH2 0x31 SWAP2 SWAP1 PUSH2 0xB8 JUMP JUMPDEST PUSH0 DUP2 GT PUSH2 0x73 JUMPI PUSH1 0x40 MLOAD PUSH32 0x8C379A000000000000000000000000000000000000000000000000000000000 DUP2 MSTORE PUSH1 0x4 ADD PUSH2 0x6A SWAP1 PUSH2 0x163 JUMP JUMPDEST PUSH1 0x40 MLOAD DUP1 SWAP2 SUB SWAP1 REVERT JUMPDEST DUP1 PUSH1 0x80 DUP2 DUP2 MSTORE POP POP POP PUSH2 0x181 JUMP JUMPDEST PUSH0 DUP1 REVERT JUMPDEST PUSH0 DUP2 SWAP1 POP SWAP2 SWAP1 POP JUMP JUMPDEST PUSH2 0x97 DUP2 PUSH2 0x85 JUMP JUMPDEST DUP2 EQ PUSH2 0xA1 JUMPI PUSH0 DUP1 REVERT JUMPDEST POP JUMP JUMPDEST PUSH0 DUP2 MLOAD SWAP1 POP PUSH2 0xB2 DUP2 PUSH2 0x8E JUMP JUMPDEST SWAP3 SWAP2 POP POP JUMP JUMPDEST PUSH0 PUSH1 0x20 DUP3 DUP5 SUB SLT ISZERO PUSH2 0xCD JUMPI PUSH2 0xCC PUSH2 0x81 JUMP JUMPDEST JUMPDEST PUSH0 PUSH2 0xDA DUP5 DUP3 DUP6 ADD PUSH2 0xA4 JUMP JUMPDEST SWAP2 POP POP SWAP3 SWAP2 POP POP JUMP JUMPDEST PUSH0 DUP3 DUP3 MSTORE PUSH1 0x20 DUP3 ADD SWAP1 POP SWAP3 SWAP2 POP POP JUMP JUMPDEST PUSH32 0x42616E6B206361706163697479206D7573742062652067726561746572207468 PUSH0 DUP3 ADD MSTORE PUSH32 0x616E203000000000000000000000000000000000000000000000000000000000 PUSH1 0x20 DUP3 ADD MSTORE POP JUMP JUMPDEST PUSH0 PUSH2 0x14D PUSH1 0x24 DUP4 PUSH2 0xE3 JUMP JUMPDEST SWAP2 POP PUSH2 0x158 DUP3 PUSH2 0xF3 JUMP JUMPDEST PUSH1 0x40 DUP3 ADD SWAP1 POP SWAP2 SWAP1 POP JUMP JUMPDEST PUSH0 PUSH1 0x20 DUP3 ADD SWAP1 POP DUP2 DUP2 SUB PUSH0 DUP4 ADD MSTORE PUSH2 0x17A DUP2 PUSH2 0x141 JUMP JUMPDEST SWAP1 POP SWAP2 SWAP1 POP JUMP JUMPDEST PUSH1 0x80 MLOAD PUSH2 0x918 PUSH2 0x1A0 PUSH0 CODECOPY PUSH0 DUP2 DUP2 PUSH2 0x33C ADD MSTORE PUSH2 0x486 ADD MSTORE PUSH2 0x918 PUSH0 RETURN INVALID PUSH1 0x80 PUSH1 0x40 MSTORE PUSH1 0x4 CALLDATASIZE LT PUSH2 0x58 JUMPI PUSH0 CALLDATALOAD PUSH1 0xE0 SHR DUP1 PUSH4 0x12B58349 EQ PUSH2 0xD3 JUMPI DUP1 PUSH4 0x2E1A7D4D EQ PUSH2 0xFD JUMPI DUP1 PUSH4 0x82EE0D1D EQ PUSH2 0x125 JUMPI DUP1 PUSH4 0xD0E30DB0 EQ PUSH2 0x14F JUMPI DUP1 PUSH4 0xECBEA24D EQ PUSH2 0x159 JUMPI DUP1 PUSH4 0xF8B2CB4F EQ PUSH2 0x183 JUMPI PUSH2 0x98 JUMP JUMPDEST CALLDATASIZE PUSH2 0x98 JUMPI PUSH1 0x40 MLOAD PUSH32 0x8C379A000000000000000000000000000000000000000000000000000000000 DUP2 MSTORE PUSH1 0x4 ADD PUSH2 0x8F SWAP1 PUSH2 0x5EB JUMP JUMPDEST PUSH1 0x40 MLOAD DUP1 SWAP2 SUB SWAP1 REVERT JUMPDEST PUSH1 0x40 MLOAD PUSH32 0x8C379A000000000000000000000000000000000000000000000000000000000 DUP2 MSTORE PUSH1 0x4 ADD PUSH2 0xCA SWAP1 PUSH2 0x653 JUMP JUMPDEST PUSH1 0x40 MLOAD DUP1 SWAP2 SUB SWAP1 REVERT JUMPDEST CALLVALUE DUP1 ISZERO PUSH2 0xDE JUMPI PUSH0 DUP1 REVERT JUMPDEST POP PUSH2 0xE7 PUSH2 0x1BF JUMP JUMPDEST PUSH1 0x40 MLOAD PUSH2 0xF4 SWAP2 SWAP1 PUSH2 0x689 JUMP JUMPDEST PUSH1 0x40 MLOAD DUP1 SWAP2 SUB SWAP1 RETURN JUMPDEST CALLVALUE DUP1 ISZERO PUSH2 0x108 JUMPI PUSH0 DUP1 REVERT JUMPDEST POP PUSH2 0x123 PUSH1 0x4 DUP1 CALLDATASIZE SUB DUP2 ADD SWAP1 PUSH2 0x11E SWAP2 SWAP1 PUSH2 0x6D0 JUMP JUMPDEST PUSH2 0x1C6 JUMP JUMPDEST STOP JUMPDEST CALLVALUE DUP1 ISZERO PUSH2 0x130 JUMPI PUSH0 DUP1 REVERT JUMPDEST POP PUSH2 0x139 PUSH2 0x32D JUMP JUMPDEST PUSH1 0x40 MLOAD PUSH2 0x146 SWAP2 SWAP1 PUSH2 0x689 JUMP JUMPDEST PUSH1 0x40 MLOAD DUP1 SWAP2 SUB SWAP1 RETURN JUMPDEST PUSH2 0x157 PUSH2 0x339 JUMP JUMPDEST STOP JUMPDEST CALLVALUE DUP1 ISZERO PUSH2 0x164 JUMPI PUSH0 DUP1 REVERT JUMPDEST POP PUSH2 0x16D PUSH2 0x484 JUMP JUMPDEST PUSH1 0x40 MLOAD PUSH2 0x17A SWAP2 SWAP1 PUSH2 0x689 JUMP JUMPDEST PUSH1 0x40 MLOAD DUP1 SWAP2 SUB SWAP1 RETURN JUMPDEST CALLVALUE DUP1 ISZERO PUSH2 0x18E JUMPI PUSH0 DUP1 REVERT JUMPDEST POP PUSH2 0x1A9 PUSH1 0x4 DUP1 CALLDATASIZE SUB DUP2 ADD SWAP1 PUSH2 0x1A4 SWAP2 SWAP1 PUSH2 0x755 JUMP JUMPDEST PUSH2 0x4A8 JUMP JUMPDEST PUSH1 0x40 MLOAD PUSH2 0x1B6 SWAP2 SWAP1 PUSH2 0x689 JUMP JUMPDEST PUSH1 0x40 MLOAD DUP1 SWAP2 SUB SWAP1 RETURN JUMPDEST PUSH0 SELFBALANCE SWAP1 POP SWAP1 JUMP JUMPDEST DUP1 PUSH8 0xDE0B6B3A7640000 DUP2 GT ISZERO PUSH2 0x209 JUMPI PUSH1 0x40 MLOAD PUSH32 0x1CA18F6600000000000000000000000000000000000000000000000000000000 DUP2 MSTORE PUSH1 0x4 ADD PUSH1 0x40 MLOAD DUP1 SWAP2 SUB SWAP1 REVERT JUMPDEST DUP1 PUSH0 DUP1 CALLER PUSH20 0xFFFFFFFFFFFFFFFFFFFFFFFFFFFFFFFFFFFFFFFF AND PUSH20 0xFFFFFFFFFFFFFFFFFFFFFFFFFFFFFFFFFFFFFFFF AND DUP2 MSTORE PUSH1 0x20 ADD SWAP1 DUP2 MSTORE PUSH1 0x20 ADD PUSH0 KECCAK256 SLOAD LT ISZERO PUSH2 0x27F JUMPI PUSH1 0x40 MLOAD PUSH32 0xF4D678B800000000000000000000000000000000000000000000000000000000 DUP2 MSTORE PUSH1 0x4 ADD PUSH1 0x40 MLOAD DUP1 SWAP2 SUB SWAP1 REVERT JUMPDEST DUP2 PUSH0 DUP1 CALLER PUSH20 0xFFFFFFFFFFFFFFFFFFFFFFFFFFFFFFFFFFFFFFFF AND PUSH20 0xFFFFFFFFFFFFFFFFFFFFFFFFFFFFFFFFFFFFFFFF AND DUP2 MSTORE PUSH1 0x20 ADD SWAP1 DUP2 MSTORE PUSH1 0x20 ADD PUSH0 KECCAK256 PUSH0 DUP3 DUP3 SLOAD PUSH2 0x2CA SWAP2 SWAP1 PUSH2 0x7AD JUMP JUMPDEST SWAP3 POP POP DUP2 SWAP1 SSTORE POP PUSH2 0x2DB CALLER DUP4 PUSH2 0x4ED JUMP JUMPDEST CALLER PUSH20 0xFFFFFFFFFFFFFFFFFFFFFFFFFFFFFFFFFFFFFFFF AND PUSH32 0x7FCF532C15F0A6DB0BD6D0E038BEA71D30D808C7D98CB3BF7268A95BF5081B65 DUP4 PUSH1 0x40 MLOAD PUSH2 0x321 SWAP2 SWAP1 PUSH2 0x689 JUMP JUMPDEST PUSH1 0x40 MLOAD DUP1 SWAP2 SUB SWAP1 LOG2 POP POP JUMP JUMPDEST PUSH8 0xDE0B6B3A7640000 DUP2 JUMP JUMPDEST CALLVALUE PUSH32 0x0 DUP2 SELFBALANCE PUSH2 0x367 SWAP2 SWAP1 PUSH2 0x7E0 JUMP JUMPDEST GT ISZERO PUSH2 0x39F JUMPI PUSH1 0x40 MLOAD PUSH32 0xF335B18B00000000000000000000000000000000000000000000000000000000 DUP2 MSTORE PUSH1 0x4 ADD PUSH1 0x40 MLOAD DUP1 SWAP2 SUB SWAP1 REVERT JUMPDEST PUSH0 CALLVALUE GT PUSH2 0x3E1 JUMPI PUSH1 0x40 MLOAD PUSH32 0x8C379A000000000000000000000000000000000000000000000000000000000 DUP2 MSTORE PUSH1 0x4 ADD PUSH2 0x3D8 SWAP1 PUSH2 0x883 JUMP JUMPDEST PUSH1 0x40 MLOAD DUP1 SWAP2 SUB SWAP1 REVERT JUMPDEST CALLVALUE PUSH0 DUP1 CALLER PUSH20 0xFFFFFFFFFFFFFFFFFFFFFFFFFFFFFFFFFFFFFFFF AND PUSH20 0xFFFFFFFFFFFFFFFFFFFFFFFFFFFFFFFFFFFFFFFF AND DUP2 MSTORE PUSH1 0x20 ADD SWAP1 DUP2 MSTORE PUSH1 0x20 ADD PUSH0 KECCAK256 PUSH0 DUP3 DUP3 SLOAD PUSH2 0x42C SWAP2 SWAP1 PUSH2 0x7E0 JUMP JUMPDEST SWAP3 POP POP DUP2 SWAP1 SSTORE POP CALLER PUSH20 0xFFFFFFFFFFFFFFFFFFFFFFFFFFFFFFFFFFFFFFFF AND PUSH32 0xE1FFFCC4923D04B559F4D29A8BFC6CDA04EB5B0D3C460751C2402C5C5CC9109C CALLVALUE PUSH1 0x40 MLOAD PUSH2 0x479 SWAP2 SWAP1 PUSH2 0x689 JUMP JUMPDEST PUSH1 0x40 MLOAD DUP1 SWAP2 SUB SWAP1 LOG2 POP JUMP JUMPDEST PUSH32 0x0 DUP2 JUMP JUMPDEST PUSH0 DUP1 PUSH0 DUP4 PUSH20 0xFFFFFFFFFFFFFFFFFFFFFFFFFFFFFFFFFFFFFFFF AND PUSH20 0xFFFFFFFFFFFFFFFFFFFFFFFFFFFFFFFFFFFFFFFF AND DUP2 MSTORE PUSH1 0x20 ADD SWAP1 DUP2 MSTORE PUSH1 0x20 ADD PUSH0 KECCAK256 SLOAD SWAP1 POP SWAP2 SWAP1 POP JUMP JUMPDEST PUSH0 DUP3 PUSH20 0xFFFFFFFFFFFFFFFFFFFFFFFFFFFFFFFFFFFFFFFF AND DUP3 PUSH1 0x40 MLOAD PUSH2 0x512 SWAP1 PUSH2 0x8CE JUMP JUMPDEST PUSH0 PUSH1 0x40 MLOAD DUP1 DUP4 SUB DUP2 DUP6 DUP8 GAS CALL SWAP3 POP POP POP RETURNDATASIZE DUP1 PUSH0 DUP2 EQ PUSH2 0x54C JUMPI PUSH1 0x40 MLOAD SWAP2 POP PUSH1 0x1F NOT PUSH1 0x3F RETURNDATASIZE ADD AND DUP3 ADD PUSH1 0x40 MSTORE RETURNDATASIZE DUP3 MSTORE RETURNDATASIZE PUSH0 PUSH1 0x20 DUP5 ADD RETURNDATACOPY PUSH2 0x551 JUMP JUMPDEST PUSH1 0x60 SWAP2 POP JUMPDEST POP POP SWAP1 POP DUP1 PUSH2 0x58C JUMPI PUSH1 0x40 MLOAD PUSH32 0x90B8EC1800000000000000000000000000000000000000000000000000000000 DUP2 MSTORE PUSH1 0x4 ADD PUSH1 0x40 MLOAD DUP1 SWAP2 SUB SWAP1 REVERT JUMPDEST POP POP POP JUMP JUMPDEST PUSH0 DUP3 DUP3 MSTORE PUSH1 0x20 DUP3 ADD SWAP1 POP SWAP3 SWAP2 POP POP JUMP JUMPDEST PUSH32 0x557365206465706F7369742066756E6374696F6E20746F2073656E6420455448 PUSH0 DUP3 ADD MSTORE POP JUMP JUMPDEST PUSH0 PUSH2 0x5D5 PUSH1 0x20 DUP4 PUSH2 0x591 JUMP JUMPDEST SWAP2 POP PUSH2 0x5E0 DUP3 PUSH2 0x5A1 JUMP JUMPDEST PUSH1 0x20 DUP3 ADD SWAP1 POP SWAP2 SWAP1 POP JUMP JUMPDEST PUSH0 PUSH1 0x20 DUP3 ADD SWAP1 POP DUP2 DUP2 SUB PUSH0 DUP4 ADD MSTORE PUSH2 0x602 DUP2 PUSH2 0x5C9 JUMP JUMPDEST SWAP1 POP SWAP2 SWAP1 POP JUMP JUMPDEST PUSH32 0x496E76616C6964207472616E73616374696F6E00000000000000000000000000 PUSH0 DUP3 ADD MSTORE POP JUMP JUMPDEST PUSH0 PUSH2 0x63D PUSH1 0x13 DUP4 PUSH2 0x591 JUMP JUMPDEST SWAP2 POP PUSH2 0x648 DUP3 PUSH2 0x609 JUMP JUMPDEST PUSH1 0x20 DUP3 ADD SWAP1 POP SWAP2 SWAP1 POP JUMP JUMPDEST PUSH0 PUSH1 0x20 DUP3 ADD SWAP1 POP DUP2 DUP2 SUB PUSH0 DUP4 ADD MSTORE PUSH2 0x66A DUP2 PUSH2 0x631 JUMP JUMPDEST SWAP1 POP SWAP2 SWAP1 POP JUMP JUMPDEST PUSH0 DUP2 SWAP1 POP SWAP2 SWAP1 POP JUMP JUMPDEST PUSH2 0x683 DUP2 PUSH2 0x671 JUMP JUMPDEST DUP3 MSTORE POP POP JUMP JUMPDEST PUSH0 PUSH1 0x20 DUP3 ADD SWAP1 POP PUSH2 0x69C PUSH0 DUP4 ADD DUP5 PUSH2 0x67A JUMP JUMPDEST SWAP3 SWAP2 POP POP JUMP JUMPDEST PUSH0 DUP1 REVERT JUMPDEST PUSH2 0x6AF DUP2 PUSH2 0x671 JUMP JUMPDEST DUP2 EQ PUSH2 0x6B9 JUMPI PUSH0 DUP1 REVERT JUMPDEST POP JUMP JUMPDEST PUSH0 DUP2 CALLDATALOAD SWAP1 POP PUSH2 0x6CA DUP2 PUSH2 0x6A6 JUMP JUMPDEST SWAP3 SWAP2 POP POP JUMP JUMPDEST PUSH0 PUSH1 0x20 DUP3 DUP5 SUB SLT ISZERO PUSH2 0x6E5 JUMPI PUSH2 0x6E4 PUSH2 0x6A2 JUMP JUMPDEST JUMPDEST PUSH0 PUSH2 0x6F2 DUP5 DUP3 DUP6 ADD PUSH2 0x6BC JUMP JUMPDEST SWAP2 POP POP SWAP3 SWAP2 POP POP JUMP JUMPDEST PUSH0 PUSH20 0xFFFFFFFFFFFFFFFFFFFFFFFFFFFFFFFFFFFFFFFF DUP3 AND SWAP1 POP SWAP2 SWAP1 POP JUMP JUMPDEST PUSH0 PUSH2 0x724 DUP3 PUSH2 0x6FB JUMP JUMPDEST SWAP1 POP SWAP2 SWAP1 POP JUMP JUMPDEST PUSH2 0x734 DUP2 PUSH2 0x71A JUMP JUMPDEST DUP2 EQ PUSH2 0x73E JUMPI PUSH0 DUP1 REVERT JUMPDEST POP JUMP JUMPDEST PUSH0 DUP2 CALLDATALOAD SWAP1 POP PUSH2 0x74F DUP2 PUSH2 0x72B JUMP JUMPDEST SWAP3 SWAP2 POP POP JUMP JUMPDEST PUSH0 PUSH1 0x20 DUP3 DUP5 SUB SLT ISZERO PUSH2 0x76A JUMPI PUSH2 0x769 PUSH2 0x6A2 JUMP JUMPDEST JUMPDEST PUSH0 PUSH2 0x777 DUP5 DUP3 DUP6 ADD PUSH2 0x741 JUMP JUMPDEST SWAP2 POP POP SWAP3 SWAP2 POP POP JUMP JUMPDEST PUSH32 0x4E487B7100000000000000000000000000000000000000000000000000000000 PUSH0 MSTORE PUSH1 0x11 PUSH1 0x4 MSTORE PUSH1 0x24 PUSH0 REVERT JUMPDEST PUSH0 PUSH2 0x7B7 DUP3 PUSH2 0x671 JUMP JUMPDEST SWAP2 POP PUSH2 0x7C2 DUP4 PUSH2 0x671 JUMP JUMPDEST SWAP3 POP DUP3 DUP3 SUB SWAP1 POP DUP2 DUP2 GT ISZERO PUSH2 0x7DA JUMPI PUSH2 0x7D9 PUSH2 0x780 JUMP JUMPDEST JUMPDEST SWAP3 SWAP2 POP POP JUMP JUMPDEST PUSH0 PUSH2 0x7EA DUP3 PUSH2 0x671 JUMP JUMPDEST SWAP2 POP PUSH2 0x7F5 DUP4 PUSH2 0x671 JUMP JUMPDEST SWAP3 POP DUP3 DUP3 ADD SWAP1 POP DUP1 DUP3 GT ISZERO PUSH2 0x80D JUMPI PUSH2 0x80C PUSH2 0x780 JUMP JUMPDEST JUMPDEST SWAP3 SWAP2 POP POP JUMP JUMPDEST PUSH32 0x4465706F73697420616D6F756E74206D75737420626520677265617465722074 PUSH0 DUP3 ADD MSTORE PUSH32 0x68616E2030000000000000000000000000000000000000000000000000000000 PUSH1 0x20 DUP3 ADD MSTORE POP JUMP JUMPDEST PUSH0 PUSH2 0x86D PUSH1 0x25 DUP4 PUSH2 0x591 JUMP JUMPDEST SWAP2 POP PUSH2 0x878 DUP3 PUSH2 0x813 JUMP JUMPDEST PUSH1 0x40 DUP3 ADD SWAP1 POP SWAP2 SWAP1 POP JUMP JUMPDEST PUSH0 PUSH1 0x20 DUP3 ADD SWAP1 POP DUP2 DUP2 SUB PUSH0 DUP4 ADD MSTORE PUSH2 0x89A DUP2 PUSH2 0x861 JUMP JUMPDEST SWAP1 POP SWAP2 SWAP1 POP JUMP JUMPDEST PUSH0 DUP2 SWAP1 POP SWAP3 SWAP2 POP POP JUMP JUMPDEST POP JUMP JUMPDEST PUSH0 PUSH2 0x8B9 PUSH0 DUP4 PUSH2 0x8A1 JUMP JUMPDEST SWAP2 POP PUSH2 0x8C4 DUP3 PUSH2 0x8AB JUMP JUMPDEST PUSH0 DUP3 ADD SWAP1 POP SWAP2 SWAP1 POP JUMP JUMPDEST PUSH0 PUSH2 0x8D8 DUP3 PUSH2 0x8AE JUMP JUMPDEST SWAP2 POP DUP2 SWAP1 POP SWAP2 SWAP1 POP JUMP INVALID LOG2 PUSH5 0x6970667358 0x22 SLT KECCAK256 STOP CALLER 0xCD SLOAD 0xE1 ORIGIN EXTCODECOPY SWAP10 PUSH24 0x264CF0F56195B42B2B2B7982C666010890564C3EBA818D64 PUSH20 0x6F6C634300081A00330000000000000000000000 "
				},
				"gasEstimates": {
					"creation": {
						"codeDepositCost": "465600",
						"executionCost": "infinite",
						"totalCost": "infinite"
					},
					"external": {
						"": "488",
						"WITHDRAWAL_LIMIT()": "347",
						"bankCap()": "infinite",
						"deposit()": "infinite",
						"getBalance(address)": "2917",
						"getTotalBalance()": "312",
						"withdraw(uint256)": "infinite"
					},
					"internal": {
						"_safeTransfer(address,uint256)": "infinite"
					}
				},
				"methodIdentifiers": {
					"WITHDRAWAL_LIMIT()": "82ee0d1d",
					"bankCap()": "ecbea24d",
					"deposit()": "d0e30db0",
					"getBalance(address)": "f8b2cb4f",
					"getTotalBalance()": "12b58349",
					"withdraw(uint256)": "2e1a7d4d"
				}
			},
			"storageLayout": {
				"storage": [
					{
						"astId": 23,
						"contract": "KipuBank.sol:KipuBank",
						"label": "balances",
						"offset": 0,
						"slot": "0",
						"type": "t_mapping(t_address,t_uint256)"
					}
				],
				"types": {
					"t_address": {
						"encoding": "inplace",
						"label": "address",
						"numberOfBytes": "20"
					},
					"t_mapping(t_address,t_uint256)": {
						"encoding": "mapping",
						"key": "t_address",
						"label": "mapping(address => uint256)",
						"numberOfBytes": "32",
						"value": "t_uint256"
					},
					"t_uint256": {
						"encoding": "inplace",
						"label": "uint256",
						"numberOfBytes": "32"
					}
				}
			},
			"userdoc": {
				"kind": "user",
				"methods": {},
				"version": 1
			}
		}
	}
}